{"abi":[{"type":"function","name":"add_IOU","inputs":[{"name":"creditor","type":"address","internalType":"address"},{"name":"amount","type":"uint32","internalType":"uint32"},{"name":"path","type":"address[]","internalType":"address[]"}],"outputs":[],"stateMutability":"nonpayable"},{"type":"function","name":"debts","inputs":[{"name":"","type":"address","internalType":"address"},{"name":"","type":"address","internalType":"address"}],"outputs":[{"name":"","type":"uint32","internalType":"uint32"}],"stateMutability":"view"},{"type":"function","name":"getUsers","inputs":[],"outputs":[{"name":"","type":"address[]","internalType":"address[]"}],"stateMutability":"view"},{"type":"function","name":"knownUsers","inputs":[{"name":"","type":"address","internalType":"address"}],"outputs":[{"name":"","type":"bool","internalType":"bool"}],"stateMutability":"view"},{"type":"function","name":"lastActives","inputs":[{"name":"","type":"address","internalType":"address"}],"outputs":[{"name":"","type":"uint32","internalType":"uint32"}],"stateMutability":"view"},{"type":"function","name":"lookup","inputs":[{"name":"debtor","type":"address","internalType":"address"},{"name":"creditor","type":"address","internalType":"address"}],"outputs":[{"name":"","type":"uint32","internalType":"uint32"}],"stateMutability":"view"},{"type":"function","name":"users","inputs":[{"name":"","type":"uint256","internalType":"uint256"}],"outputs":[{"name":"","type":"address","internalType":"address"}],"stateMutability":"view"}],"bytecode":{"object":"0x608060405234801561001057600080fd5b50611222806100206000396000f3fe608060405234801561001057600080fd5b506004361061007c5760003560e01c8063713584a61161005b578063713584a6146100ff5780639dfaf96b1461012f578063dd033b8d1461015f578063fcf9f5f81461017b5761007c565b8062ce8e3e14610081578063365b98b21461009f5780634ac1c33d146100cf575b600080fd5b6100896101ab565b6040516100969190610cae565b60405180910390f35b6100b960048036038101906100b49190610d1a565b610239565b6040516100c69190610d56565b60405180910390f35b6100e960048036038101906100e49190610d9d565b610278565b6040516100f69190610dfc565b60405180910390f35b61011960048036038101906101149190610d9d565b6102aa565b6040516101269190610dfc565b60405180910390f35b61014960048036038101906101449190610e17565b610341565b6040516101569190610dfc565b60405180910390f35b61017960048036038101906101749190610fc9565b610364565b005b61019560048036038101906101909190610e17565b610b9e565b6040516101a29190611053565b60405180910390f35b6060600080548060200260200160405190810160405280929190818152602001828054801561022f57602002820191906000526020600020905b8160009054906101000a900473ffffffffffffffffffffffffffffffffffffffff1673ffffffffffffffffffffffffffffffffffffffff16815260200190600101908083116101e5575b5050505050905090565b6000818154811061024957600080fd5b906000526020600020016000915054906101000a900473ffffffffffffffffffffffffffffffffffffffff1681565b60016020528160005260406000206020528060005260406000206000915091509054906101000a900463ffffffff1681565b6000600160008473ffffffffffffffffffffffffffffffffffffffff1673ffffffffffffffffffffffffffffffffffffffff16815260200190815260200160002060008373ffffffffffffffffffffffffffffffffffffffff1673ffffffffffffffffffffffffffffffffffffffff16815260200190815260200160002060009054906101000a900463ffffffff16905092915050565b60036020528060005260406000206000915054906101000a900463ffffffff1681565b60008263ffffffff161161037757600080fd5b8273ffffffffffffffffffffffffffffffffffffffff163373ffffffffffffffffffffffffffffffffffffffff16036103af57600080fd5b6000429050600260008573ffffffffffffffffffffffffffffffffffffffff1673ffffffffffffffffffffffffffffffffffffffff16815260200190815260200160002060009054906101000a900460ff166104c1576001600260008673ffffffffffffffffffffffffffffffffffffffff1673ffffffffffffffffffffffffffffffffffffffff16815260200190815260200160002060006101000a81548160ff0219169083151502179055506000849080600181540180825580915050600190039060005260206000200160009091909190916101000a81548173ffffffffffffffffffffffffffffffffffffffff021916908373ffffffffffffffffffffffffffffffffffffffff1602179055505b600260003373ffffffffffffffffffffffffffffffffffffffff1673ffffffffffffffffffffffffffffffffffffffff16815260200190815260200160002060009054906101000a900460ff166105ce576001600260003373ffffffffffffffffffffffffffffffffffffffff1673ffffffffffffffffffffffffffffffffffffffff16815260200190815260200160002060006101000a81548160ff0219169083151502179055506000339080600181540180825580915050600190039060005260206000200160009091909190916101000a81548173ffffffffffffffffffffffffffffffffffffffff021916908373ffffffffffffffffffffffffffffffffffffffff1602179055505b82600160003373ffffffffffffffffffffffffffffffffffffffff1673ffffffffffffffffffffffffffffffffffffffff16815260200190815260200160002060008673ffffffffffffffffffffffffffffffffffffffff1673ffffffffffffffffffffffffffffffffffffffff16815260200190815260200160002060008282829054906101000a900463ffffffff16610669919061109d565b92506101000a81548163ffffffff021916908363ffffffff1602179055506002825110610adc578373ffffffffffffffffffffffffffffffffffffffff16826000815181106106bb576106ba6110d5565b5b602002602001015173ffffffffffffffffffffffffffffffffffffffff16146106e357600080fd5b3373ffffffffffffffffffffffffffffffffffffffff1682600184516107099190611104565b8151811061071a576107196110d5565b5b602002602001015173ffffffffffffffffffffffffffffffffffffffff161461074257600080fd5b6000600160003373ffffffffffffffffffffffffffffffffffffffff1673ffffffffffffffffffffffffffffffffffffffff16815260200190815260200160002060008673ffffffffffffffffffffffffffffffffffffffff1673ffffffffffffffffffffffffffffffffffffffff16815260200190815260200160002060009054906101000a900463ffffffff16905060005b600184516107e49190611104565b8110156108fb57600060016000868481518110610804576108036110d5565b5b602002602001015173ffffffffffffffffffffffffffffffffffffffff1673ffffffffffffffffffffffffffffffffffffffff1681526020019081526020016000206000866001856108569190611138565b81518110610867576108666110d5565b5b602002602001015173ffffffffffffffffffffffffffffffffffffffff1673ffffffffffffffffffffffffffffffffffffffff16815260200190815260200160002060009054906101000a900463ffffffff16905060008163ffffffff16116108cf57600080fd5b8263ffffffff168163ffffffff1610156108e7578092505b5080806108f39061116c565b9150506107d6565b5060005b6001845161090d9190611104565b811015610a2057816001600086848151811061092c5761092b6110d5565b5b602002602001015173ffffffffffffffffffffffffffffffffffffffff1673ffffffffffffffffffffffffffffffffffffffff16815260200190815260200160002060008660018561097e9190611138565b8151811061098f5761098e6110d5565b5b602002602001015173ffffffffffffffffffffffffffffffffffffffff1673ffffffffffffffffffffffffffffffffffffffff16815260200190815260200160002060008282829054906101000a900463ffffffff166109ef91906111b4565b92506101000a81548163ffffffff021916908363ffffffff1602179055508080610a189061116c565b9150506108ff565b5080600160003373ffffffffffffffffffffffffffffffffffffffff1673ffffffffffffffffffffffffffffffffffffffff16815260200190815260200160002060008773ffffffffffffffffffffffffffffffffffffffff1673ffffffffffffffffffffffffffffffffffffffff16815260200190815260200160002060008282829054906101000a900463ffffffff16610abc91906111b4565b92506101000a81548163ffffffff021916908363ffffffff160217905550505b80600360003373ffffffffffffffffffffffffffffffffffffffff1673ffffffffffffffffffffffffffffffffffffffff16815260200190815260200160002060006101000a81548163ffffffff021916908363ffffffff16021790555080600360008673ffffffffffffffffffffffffffffffffffffffff1673ffffffffffffffffffffffffffffffffffffffff16815260200190815260200160002060006101000a81548163ffffffff021916908363ffffffff16021790555050505050565b60026020528060005260406000206000915054906101000a900460ff1681565b600081519050919050565b600082825260208201905092915050565b6000819050602082019050919050565b600073ffffffffffffffffffffffffffffffffffffffff82169050919050565b6000610c1582610bea565b9050919050565b610c2581610c0a565b82525050565b6000610c378383610c1c565b60208301905092915050565b6000602082019050919050565b6000610c5b82610bbe565b610c658185610bc9565b9350610c7083610bda565b8060005b83811015610ca1578151610c888882610c2b565b9750610c9383610c43565b925050600181019050610c74565b5085935050505092915050565b60006020820190508181036000830152610cc88184610c50565b905092915050565b6000604051905090565b600080fd5b600080fd5b6000819050919050565b610cf781610ce4565b8114610d0257600080fd5b50565b600081359050610d1481610cee565b92915050565b600060208284031215610d3057610d2f610cda565b5b6000610d3e84828501610d05565b91505092915050565b610d5081610c0a565b82525050565b6000602082019050610d6b6000830184610d47565b92915050565b610d7a81610c0a565b8114610d8557600080fd5b50565b600081359050610d9781610d71565b92915050565b60008060408385031215610db457610db3610cda565b5b6000610dc285828601610d88565b9250506020610dd385828601610d88565b9150509250929050565b600063ffffffff82169050919050565b610df681610ddd565b82525050565b6000602082019050610e116000830184610ded565b92915050565b600060208284031215610e2d57610e2c610cda565b5b6000610e3b84828501610d88565b91505092915050565b610e4d81610ddd565b8114610e5857600080fd5b50565b600081359050610e6a81610e44565b92915050565b600080fd5b6000601f19601f8301169050919050565b7f4e487b7100000000000000000000000000000000000000000000000000000000600052604160045260246000fd5b610ebe82610e75565b810181811067ffffffffffffffff82111715610edd57610edc610e86565b5b80604052505050565b6000610ef0610cd0565b9050610efc8282610eb5565b919050565b600067ffffffffffffffff821115610f1c57610f1b610e86565b5b602082029050602081019050919050565b600080fd5b6000610f45610f4084610f01565b610ee6565b90508083825260208201905060208402830185811115610f6857610f67610f2d565b5b835b81811015610f915780610f7d8882610d88565b845260208401935050602081019050610f6a565b5050509392505050565b600082601f830112610fb057610faf610e70565b5b8135610fc0848260208601610f32565b91505092915050565b600080600060608486031215610fe257610fe1610cda565b5b6000610ff086828701610d88565b935050602061100186828701610e5b565b925050604084013567ffffffffffffffff81111561102257611021610cdf565b5b61102e86828701610f9b565b9150509250925092565b60008115159050919050565b61104d81611038565b82525050565b60006020820190506110686000830184611044565b92915050565b7f4e487b7100000000000000000000000000000000000000000000000000000000600052601160045260246000fd5b60006110a882610ddd565b91506110b383610ddd565b9250828201905063ffffffff8111156110cf576110ce61106e565b5b92915050565b7f4e487b7100000000000000000000000000000000000000000000000000000000600052603260045260246000fd5b600061110f82610ce4565b915061111a83610ce4565b92508282039050818111156111325761113161106e565b5b92915050565b600061114382610ce4565b915061114e83610ce4565b92508282019050808211156111665761116561106e565b5b92915050565b600061117782610ce4565b91507fffffffffffffffffffffffffffffffffffffffffffffffffffffffffffffffff82036111a9576111a861106e565b5b600182019050919050565b60006111bf82610ddd565b91506111ca83610ddd565b9250828203905063ffffffff8111156111e6576111e561106e565b5b9291505056fea2646970667358221220e2638c2f0c8e67aed15f479ea66a9d472d6ce2382d4915cdd8f215ad86aeb9a964736f6c63430008110033","linkReferences":{}},"methodIdentifiers":{"add_IOU(address,uint32,address[])":"dd033b8d","debts(address,address)":"4ac1c33d","getUsers()":"00ce8e3e","knownUsers(address)":"fcf9f5f8","lastActives(address)":"9dfaf96b","lookup(address,address)":"713584a6","users(uint256)":"365b98b2"},"id":0}